{
  "contractName": "SimpleNftLowerGas",
  "abi": [
    {
      "inputs": [],
      "stateMutability": "nonpayable",
      "type": "constructor"
    },
    {
      "anonymous": false,
      "inputs": [
        {
          "indexed": true,
          "internalType": "address",
          "name": "owner",
          "type": "address"
        },
        {
          "indexed": true,
          "internalType": "address",
          "name": "approved",
          "type": "address"
        },
        {
          "indexed": true,
          "internalType": "uint256",
          "name": "tokenId",
          "type": "uint256"
        }
      ],
      "name": "Approval",
      "type": "event"
    },
    {
      "anonymous": false,
      "inputs": [
        {
          "indexed": true,
          "internalType": "address",
          "name": "owner",
          "type": "address"
        },
        {
          "indexed": true,
          "internalType": "address",
          "name": "operator",
          "type": "address"
        },
        {
          "indexed": false,
          "internalType": "bool",
          "name": "approved",
          "type": "bool"
        }
      ],
      "name": "ApprovalForAll",
      "type": "event"
    },
    {
      "anonymous": false,
      "inputs": [
        {
          "indexed": true,
          "internalType": "address",
          "name": "previousOwner",
          "type": "address"
        },
        {
          "indexed": true,
          "internalType": "address",
          "name": "newOwner",
          "type": "address"
        }
      ],
      "name": "OwnershipTransferred",
      "type": "event"
    },
    {
      "anonymous": false,
      "inputs": [
        {
          "indexed": true,
          "internalType": "address",
          "name": "from",
          "type": "address"
        },
        {
          "indexed": true,
          "internalType": "address",
          "name": "to",
          "type": "address"
        },
        {
          "indexed": true,
          "internalType": "uint256",
          "name": "tokenId",
          "type": "uint256"
        }
      ],
      "name": "Transfer",
      "type": "event"
    },
    {
      "inputs": [
        {
          "internalType": "address",
          "name": "to",
          "type": "address"
        },
        {
          "internalType": "uint256",
          "name": "tokenId",
          "type": "uint256"
        }
      ],
      "name": "approve",
      "outputs": [],
      "stateMutability": "nonpayable",
      "type": "function"
    },
    {
      "inputs": [
        {
          "internalType": "address",
          "name": "owner",
          "type": "address"
        }
      ],
      "name": "balanceOf",
      "outputs": [
        {
          "internalType": "uint256",
          "name": "",
          "type": "uint256"
        }
      ],
      "stateMutability": "view",
      "type": "function"
    },
    {
      "inputs": [],
      "name": "cost",
      "outputs": [
        {
          "internalType": "uint256",
          "name": "",
          "type": "uint256"
        }
      ],
      "stateMutability": "view",
      "type": "function"
    },
    {
      "inputs": [
        {
          "internalType": "uint256",
          "name": "tokenId",
          "type": "uint256"
        }
      ],
      "name": "getApproved",
      "outputs": [
        {
          "internalType": "address",
          "name": "",
          "type": "address"
        }
      ],
      "stateMutability": "view",
      "type": "function"
    },
    {
      "inputs": [],
      "name": "hiddenMetadataUri",
      "outputs": [
        {
          "internalType": "string",
          "name": "",
          "type": "string"
        }
      ],
      "stateMutability": "view",
      "type": "function"
    },
    {
      "inputs": [
        {
          "internalType": "address",
          "name": "owner",
          "type": "address"
        },
        {
          "internalType": "address",
          "name": "operator",
          "type": "address"
        }
      ],
      "name": "isApprovedForAll",
      "outputs": [
        {
          "internalType": "bool",
          "name": "",
          "type": "bool"
        }
      ],
      "stateMutability": "view",
      "type": "function"
    },
    {
      "inputs": [],
      "name": "maxMintAmountPerTx",
      "outputs": [
        {
          "internalType": "uint256",
          "name": "",
          "type": "uint256"
        }
      ],
      "stateMutability": "view",
      "type": "function"
    },
    {
      "inputs": [],
      "name": "maxSupply",
      "outputs": [
        {
          "internalType": "uint256",
          "name": "",
          "type": "uint256"
        }
      ],
      "stateMutability": "view",
      "type": "function"
    },
    {
      "inputs": [],
      "name": "name",
      "outputs": [
        {
          "internalType": "string",
          "name": "",
          "type": "string"
        }
      ],
      "stateMutability": "view",
      "type": "function"
    },
    {
      "inputs": [
        {
          "internalType": "uint256",
          "name": "",
          "type": "uint256"
        }
      ],
      "name": "nftDetails",
      "outputs": [
        {
          "internalType": "enum SimpleNftLowerGas.Rareza",
          "name": "rareza",
          "type": "uint8"
        },
        {
          "internalType": "bool",
          "name": "fusionado",
          "type": "bool"
        }
      ],
      "stateMutability": "view",
      "type": "function"
    },
    {
      "inputs": [],
      "name": "owner",
      "outputs": [
        {
          "internalType": "address",
          "name": "",
          "type": "address"
        }
      ],
      "stateMutability": "view",
      "type": "function"
    },
    {
      "inputs": [
        {
          "internalType": "uint256",
          "name": "tokenId",
          "type": "uint256"
        }
      ],
      "name": "ownerOf",
      "outputs": [
        {
          "internalType": "address",
          "name": "",
          "type": "address"
        }
      ],
      "stateMutability": "view",
      "type": "function"
    },
    {
      "inputs": [],
      "name": "paused",
      "outputs": [
        {
          "internalType": "bool",
          "name": "",
          "type": "bool"
        }
      ],
      "stateMutability": "view",
      "type": "function"
    },
    {
      "inputs": [],
      "name": "renounceOwnership",
      "outputs": [],
      "stateMutability": "nonpayable",
      "type": "function"
    },
    {
      "inputs": [],
      "name": "revealed",
      "outputs": [
        {
          "internalType": "bool",
          "name": "",
          "type": "bool"
        }
      ],
      "stateMutability": "view",
      "type": "function"
    },
    {
      "inputs": [
        {
          "internalType": "address",
          "name": "from",
          "type": "address"
        },
        {
          "internalType": "address",
          "name": "to",
          "type": "address"
        },
        {
          "internalType": "uint256",
          "name": "tokenId",
          "type": "uint256"
        }
      ],
      "name": "safeTransferFrom",
      "outputs": [],
      "stateMutability": "nonpayable",
      "type": "function"
    },
    {
      "inputs": [
        {
          "internalType": "address",
          "name": "from",
          "type": "address"
        },
        {
          "internalType": "address",
          "name": "to",
          "type": "address"
        },
        {
          "internalType": "uint256",
          "name": "tokenId",
          "type": "uint256"
        },
        {
          "internalType": "bytes",
          "name": "_data",
          "type": "bytes"
        }
      ],
      "name": "safeTransferFrom",
      "outputs": [],
      "stateMutability": "nonpayable",
      "type": "function"
    },
    {
      "inputs": [
        {
          "internalType": "address",
          "name": "operator",
          "type": "address"
        },
        {
          "internalType": "bool",
          "name": "approved",
          "type": "bool"
        }
      ],
      "name": "setApprovalForAll",
      "outputs": [],
      "stateMutability": "nonpayable",
      "type": "function"
    },
    {
      "inputs": [
        {
          "internalType": "bytes4",
          "name": "interfaceId",
          "type": "bytes4"
        }
      ],
      "name": "supportsInterface",
      "outputs": [
        {
          "internalType": "bool",
          "name": "",
          "type": "bool"
        }
      ],
      "stateMutability": "view",
      "type": "function"
    },
    {
      "inputs": [],
      "name": "symbol",
      "outputs": [
        {
          "internalType": "string",
          "name": "",
          "type": "string"
        }
      ],
      "stateMutability": "view",
      "type": "function"
    },
    {
      "inputs": [
        {
          "internalType": "address",
          "name": "from",
          "type": "address"
        },
        {
          "internalType": "address",
          "name": "to",
          "type": "address"
        },
        {
          "internalType": "uint256",
          "name": "tokenId",
          "type": "uint256"
        }
      ],
      "name": "transferFrom",
      "outputs": [],
      "stateMutability": "nonpayable",
      "type": "function"
    },
    {
      "inputs": [
        {
          "internalType": "address",
          "name": "newOwner",
          "type": "address"
        }
      ],
      "name": "transferOwnership",
      "outputs": [],
      "stateMutability": "nonpayable",
      "type": "function"
    },
    {
      "inputs": [],
      "name": "uriPrefix",
      "outputs": [
        {
          "internalType": "string",
          "name": "",
          "type": "string"
        }
      ],
      "stateMutability": "view",
      "type": "function"
    },
    {
      "inputs": [],
      "name": "uriSuffix",
      "outputs": [
        {
          "internalType": "string",
          "name": "",
          "type": "string"
        }
      ],
      "stateMutability": "view",
      "type": "function"
    },
    {
      "inputs": [],
      "name": "totalSupply",
      "outputs": [
        {
          "internalType": "uint256",
          "name": "",
          "type": "uint256"
        }
      ],
      "stateMutability": "view",
      "type": "function"
    },
    {
      "inputs": [
        {
          "internalType": "uint256",
          "name": "_mintAmount",
          "type": "uint256"
        },
        {
          "internalType": "enum SimpleNftLowerGas.Rareza",
          "name": "_rareza",
          "type": "uint8"
        }
      ],
      "name": "mint",
      "outputs": [],
      "stateMutability": "payable",
      "type": "function"
    },
    {
      "inputs": [
        {
          "internalType": "uint256",
          "name": "_mintAmount",
          "type": "uint256"
        },
        {
          "internalType": "address",
          "name": "_receiver",
          "type": "address"
        },
        {
          "internalType": "enum SimpleNftLowerGas.Rareza",
          "name": "_rareza",
          "type": "uint8"
        }
      ],
      "name": "mintForAddress",
      "outputs": [],
      "stateMutability": "nonpayable",
      "type": "function"
    },
    {
      "inputs": [
        {
          "internalType": "uint256",
          "name": "tokenId1",
          "type": "uint256"
        },
        {
          "internalType": "uint256",
          "name": "tokenId2",
          "type": "uint256"
        }
      ],
      "name": "fusionarNFTs",
      "outputs": [],
      "stateMutability": "nonpayable",
      "type": "function"
    },
    {
      "inputs": [
        {
          "internalType": "address",
          "name": "_owner",
          "type": "address"
        }
      ],
      "name": "walletOfOwner",
      "outputs": [
        {
          "internalType": "uint256[]",
          "name": "",
          "type": "uint256[]"
        }
      ],
      "stateMutability": "view",
      "type": "function"
    },
    {
      "inputs": [
        {
          "internalType": "uint256",
          "name": "_tokenId",
          "type": "uint256"
        }
      ],
      "name": "tokenURI",
      "outputs": [
        {
          "internalType": "string",
          "name": "",
          "type": "string"
        }
      ],
      "stateMutability": "view",
      "type": "function"
    },
    {
      "inputs": [
        {
          "internalType": "bool",
          "name": "_state",
          "type": "bool"
        }
      ],
      "name": "setRevealed",
      "outputs": [],
      "stateMutability": "nonpayable",
      "type": "function"
    },
    {
      "inputs": [
        {
          "internalType": "uint256",
          "name": "_cost",
          "type": "uint256"
        }
      ],
      "name": "setCost",
      "outputs": [],
      "stateMutability": "nonpayable",
      "type": "function"
    },
    {
      "inputs": [
        {
          "internalType": "uint256",
          "name": "_maxMintAmountPerTx",
          "type": "uint256"
        }
      ],
      "name": "setMaxMintAmountPerTx",
      "outputs": [],
      "stateMutability": "nonpayable",
      "type": "function"
    },
    {
      "inputs": [
        {
          "internalType": "string",
          "name": "_hiddenMetadataUri",
          "type": "string"
        }
      ],
      "name": "setHiddenMetadataUri",
      "outputs": [],
      "stateMutability": "nonpayable",
      "type": "function"
    },
    {
      "inputs": [
        {
          "internalType": "string",
          "name": "_uriPrefix",
          "type": "string"
        }
      ],
      "name": "setUriPrefix",
      "outputs": [],
      "stateMutability": "nonpayable",
      "type": "function"
    },
    {
      "inputs": [
        {
          "internalType": "string",
          "name": "_uriSuffix",
          "type": "string"
        }
      ],
      "name": "setUriSuffix",
      "outputs": [],
      "stateMutability": "nonpayable",
      "type": "function"
    },
    {
      "inputs": [
        {
          "internalType": "bool",
          "name": "_state",
          "type": "bool"
        }
      ],
      "name": "setPaused",
      "outputs": [],
      "stateMutability": "nonpayable",
      "type": "function"
    },
    {
      "inputs": [],
      "name": "withdraw",
      "outputs": [],
      "stateMutability": "nonpayable",
      "type": "function"
    }
  ],
  "bytecode": "0x608060405260405180602001604052805f8152506008908162000023919062000584565b506040518060400160405280600581526020017f2e6a736f6e000000000000000000000000000000000000000000000000000000815250600990816200006a919062000584565b50662386f26fc10000600b55612710600c556005600d556001600e5f6101000a81548160ff0219169083151502179055505f600e60016101000a81548160ff021916908315150217905550348015620000c1575f80fd5b506040518060400160405280600581526020017f4d794e46540000000000000000000000000000000000000000000000000000008152506040518060400160405280600481526020017f4d4e465400000000000000000000000000000000000000000000000000000000815250815f90816200013e919062000584565b50806001908162000150919062000584565b5050505f620001646200024d60201b60201c565b90508060065f6101000a81548173ffffffffffffffffffffffffffffffffffffffff021916908373ffffffffffffffffffffffffffffffffffffffff1602179055508073ffffffffffffffffffffffffffffffffffffffff165f73ffffffffffffffffffffffffffffffffffffffff167f8be0079c531659141344cd1fd0a4f28419497f9722a3daafe3b4186f6b6457e060405160405180910390a350620002476040518060400160405280601a81526020017f697066733a2f2f5f5f4349445f5f2f68696464656e2e6a736f6e0000000000008152506200025460201b60201c565b620006e6565b5f33905090565b620002646200024d60201b60201c565b73ffffffffffffffffffffffffffffffffffffffff166200028a620002f860201b60201c565b73ffffffffffffffffffffffffffffffffffffffff1614620002e3576040517f08c379a0000000000000000000000000000000000000000000000000000000008152600401620002da90620006c6565b60405180910390fd5b80600a9081620002f4919062000584565b5050565b5f60065f9054906101000a900473ffffffffffffffffffffffffffffffffffffffff16905090565b5f81519050919050565b7f4e487b71000000000000000000000000000000000000000000000000000000005f52604160045260245ffd5b7f4e487b71000000000000000000000000000000000000000000000000000000005f52602260045260245ffd5b5f60028204905060018216806200039c57607f821691505b602082108103620003b257620003b162000357565b5b50919050565b5f819050815f5260205f209050919050565b5f6020601f8301049050919050565b5f82821b905092915050565b5f60088302620004167fffffffffffffffffffffffffffffffffffffffffffffffffffffffffffffffff82620003d9565b620004228683620003d9565b95508019841693508086168417925050509392505050565b5f819050919050565b5f819050919050565b5f6200046c6200046662000460846200043a565b62000443565b6200043a565b9050919050565b5f819050919050565b62000487836200044c565b6200049f620004968262000473565b848454620003e5565b825550505050565b5f90565b620004b5620004a7565b620004c28184846200047c565b505050565b5b81811015620004e957620004dd5f82620004ab565b600181019050620004c8565b5050565b601f82111562000538576200050281620003b8565b6200050d84620003ca565b810160208510156200051d578190505b620005356200052c85620003ca565b830182620004c7565b50505b505050565b5f82821c905092915050565b5f6200055a5f19846008026200053d565b1980831691505092915050565b5f62000574838362000549565b9150826002028217905092915050565b6200058f8262000320565b67ffffffffffffffff811115620005ab57620005aa6200032a565b5b620005b7825462000384565b620005c4828285620004ed565b5f60209050601f831160018114620005fa575f8415620005e5578287015190505b620005f1858262000567565b86555062000660565b601f1984166200060a86620003b8565b5f5b8281101562000633578489015182556001820191506020850194506020810190506200060c565b868310156200065357848901516200064f601f89168262000549565b8355505b6001600288020188555050505b505050505050565b5f82825260208201905092915050565b7f4f776e61626c653a2063616c6c6572206973206e6f7420746865206f776e65725f82015250565b5f620006ae60208362000668565b9150620006bb8262000678565b602082019050919050565b5f6020820190508181035f830152620006df81620006a0565b9050919050565b61489a80620006f45f395ff3fe608060405260043610610224575f3560e01c806362b99ad411610122578063a22cb465116100aa578063d5abeb011161006e578063d5abeb01146107cf578063e0a80853146107f9578063e985e9c514610821578063f2fde38b1461085d578063fb2f1ffb1461088557610224565b8063a22cb465146106f1578063a45ba8e714610719578063b071401b14610743578063b88d4fde1461076b578063c87b56dd1461079357610224565b80637d4cd847116100f15780637d4cd8471461060e5780637ec4a6591461064b5780638da5cb5b1461067357806394354fd01461069d57806395d89b41146106c757610224565b806362b99ad4146105565780636352211e1461058057806370a08231146105bc578063715018a6146105f857610224565b806323b872dd116101b057806344a0d68a1161017457806344a0d68a146104885780634fdd43cb146104b057806351830227146104d85780635503a0e8146105025780635c975abb1461052c57610224565b806323b872dd146103be5780633ccfd60b146103e657806341190bad146103fc57806342842e0e14610424578063438b63001461044c57610224565b80631265f1fa116101f75780631265f1fa146102f257806313faede61461031a57806316ba10e01461034457806316c38b3c1461036c57806318160ddd1461039457610224565b806301ffc9a71461022857806306fdde0314610264578063081812fc1461028e578063095ea7b3146102ca575b5f80fd5b348015610233575f80fd5b5061024e60048036038101906102499190612e73565b6108a1565b60405161025b9190612eb8565b60405180910390f35b34801561026f575f80fd5b50610278610982565b6040516102859190612f5b565b60405180910390f35b348015610299575f80fd5b506102b460048036038101906102af9190612fae565b610a11565b6040516102c19190613018565b60405180910390f35b3480156102d5575f80fd5b506102f060048036038101906102eb919061305b565b610a92565b005b3480156102fd575f80fd5b5061031860048036038101906103139190613099565b610ba8565b005b348015610325575f80fd5b5061032e610e54565b60405161033b91906130e6565b60405180910390f35b34801561034f575f80fd5b5061036a6004803603810190610365919061322b565b610e5a565b005b348015610377575f80fd5b50610392600480360381019061038d919061329c565b610ee9565b005b34801561039f575f80fd5b506103a8610f81565b6040516103b591906130e6565b60405180910390f35b3480156103c9575f80fd5b506103e460048036038101906103df91906132c7565b610f91565b005b3480156103f1575f80fd5b506103fa610ff1565b005b348015610407575f80fd5b50610422600480360381019061041d919061333a565b6110e8565b005b34801561042f575f80fd5b5061044a600480360381019061044591906132c7565b6111b1565b005b348015610457575f80fd5b50610472600480360381019061046d919061338a565b6111d0565b60405161047f919061346c565b60405180910390f35b348015610493575f80fd5b506104ae60048036038101906104a99190612fae565b6112d5565b005b3480156104bb575f80fd5b506104d660048036038101906104d1919061322b565b61135b565b005b3480156104e3575f80fd5b506104ec6113ea565b6040516104f99190612eb8565b60405180910390f35b34801561050d575f80fd5b506105166113fd565b6040516105239190612f5b565b60405180910390f35b348015610537575f80fd5b50610540611489565b60405161054d9190612eb8565b60405180910390f35b348015610561575f80fd5b5061056a61149b565b6040516105779190612f5b565b60405180910390f35b34801561058b575f80fd5b506105a660048036038101906105a19190612fae565b611527565b6040516105b39190613018565b60405180910390f35b3480156105c7575f80fd5b506105e260048036038101906105dd919061338a565b6115d3565b6040516105ef91906130e6565b60405180910390f35b348015610603575f80fd5b5061060c611687565b005b348015610619575f80fd5b50610634600480360381019061062f9190612fae565b6117c0565b6040516106429291906134ff565b60405180910390f35b348015610656575f80fd5b50610671600480360381019061066c919061322b565b6117f8565b005b34801561067e575f80fd5b50610687611887565b6040516106949190613018565b60405180910390f35b3480156106a8575f80fd5b506106b16118af565b6040516106be91906130e6565b60405180910390f35b3480156106d2575f80fd5b506106db6118b5565b6040516106e89190612f5b565b60405180910390f35b3480156106fc575f80fd5b5061071760048036038101906107129190613526565b611945565b005b348015610724575f80fd5b5061072d611ac0565b60405161073a9190612f5b565b60405180910390f35b34801561074e575f80fd5b5061076960048036038101906107649190612fae565b611b4c565b005b348015610776575f80fd5b50610791600480360381019061078c9190613602565b611bd2565b005b34801561079e575f80fd5b506107b960048036038101906107b49190612fae565b611c34565b6040516107c69190612f5b565b60405180910390f35b3480156107da575f80fd5b506107e3611d86565b6040516107f091906130e6565b60405180910390f35b348015610804575f80fd5b5061081f600480360381019061081a919061329c565b611d8c565b005b34801561082c575f80fd5b5061084760048036038101906108429190613682565b611e25565b6040516108549190612eb8565b60405180910390f35b348015610868575f80fd5b50610883600480360381019061087e919061338a565b611eb3565b005b61089f600480360381019061089a91906136c0565b61205b565b005b5f7f80ac58cd000000000000000000000000000000000000000000000000000000007bffffffffffffffffffffffffffffffffffffffffffffffffffffffff1916827bffffffffffffffffffffffffffffffffffffffffffffffffffffffff1916148061096b57507f5b5e139f000000000000000000000000000000000000000000000000000000007bffffffffffffffffffffffffffffffffffffffffffffffffffffffff1916827bffffffffffffffffffffffffffffffffffffffffffffffffffffffff1916145b8061097b575061097a82612146565b5b9050919050565b60605f80546109909061372b565b80601f01602080910402602001604051908101604052809291908181526020018280546109bc9061372b565b8015610a075780601f106109de57610100808354040283529160200191610a07565b820191905f5260205f20905b8154815290600101906020018083116109ea57829003601f168201915b5050505050905090565b5f610a1b826121af565b610a5a576040517f08c379a0000000000000000000000000000000000000000000000000000000008152600401610a51906137cb565b60405180910390fd5b60045f8381526020019081526020015f205f9054906101000a900473ffffffffffffffffffffffffffffffffffffffff169050919050565b5f610a9c82611527565b90508073ffffffffffffffffffffffffffffffffffffffff168373ffffffffffffffffffffffffffffffffffffffff1603610b0c576040517f08c379a0000000000000000000000000000000000000000000000000000000008152600401610b0390613859565b60405180910390fd5b8073ffffffffffffffffffffffffffffffffffffffff16610b2b612217565b73ffffffffffffffffffffffffffffffffffffffff161480610b5a5750610b5981610b54612217565b611e25565b5b610b99576040517f08c379a0000000000000000000000000000000000000000000000000000000008152600401610b90906138e7565b60405180910390fd5b610ba3838361221e565b505050565b3373ffffffffffffffffffffffffffffffffffffffff16610bc883611527565b73ffffffffffffffffffffffffffffffffffffffff16148015610c1e57503373ffffffffffffffffffffffffffffffffffffffff16610c0682611527565b73ffffffffffffffffffffffffffffffffffffffff16145b610c5d576040517f08c379a0000000000000000000000000000000000000000000000000000000008152600401610c5490613975565b60405180910390fd5b600f5f8281526020019081526020015f205f015f9054906101000a900460ff166003811115610c8f57610c8e61348c565b5b600f5f8481526020019081526020015f205f015f9054906101000a900460ff166003811115610cc157610cc061348c565b5b14610d01576040517f08c379a0000000000000000000000000000000000000000000000000000000008152600401610cf890613a03565b60405180910390fd5b600380811115610d1457610d1361348c565b5b600f5f8481526020019081526020015f205f015f9054906101000a900460ff166003811115610d4657610d4561348c565b5b03610d86576040517f08c379a0000000000000000000000000000000000000000000000000000000008152600401610d7d90613a91565b60405180910390fd5b6001600f5f8481526020019081526020015f205f0160016101000a81548160ff0219169083151502179055506001600f5f8381526020019081526020015f205f0160016101000a81548160ff021916908315150217905550610de7826122d4565b610df0816122d4565b5f6001600f5f8581526020019081526020015f205f015f9054906101000a900460ff166003811115610e2557610e2461348c565b5b610e2f9190613adc565b6003811115610e4157610e4061348c565b5b9050610e4f336001836123db565b505050565b600b5481565b610e62612217565b73ffffffffffffffffffffffffffffffffffffffff16610e80611887565b73ffffffffffffffffffffffffffffffffffffffff1614610ed6576040517f08c379a0000000000000000000000000000000000000000000000000000000008152600401610ecd90613b59565b60405180910390fd5b8060099081610ee59190613d14565b5050565b610ef1612217565b73ffffffffffffffffffffffffffffffffffffffff16610f0f611887565b73ffffffffffffffffffffffffffffffffffffffff1614610f65576040517f08c379a0000000000000000000000000000000000000000000000000000000008152600401610f5c90613b59565b60405180910390fd5b80600e5f6101000a81548160ff02191690831515021790555050565b5f610f8c60076124a9565b905090565b610fa2610f9c612217565b826124b5565b610fe1576040517f08c379a0000000000000000000000000000000000000000000000000000000008152600401610fd890613e53565b60405180910390fd5b610fec838383612591565b505050565b610ff9612217565b73ffffffffffffffffffffffffffffffffffffffff16611017611887565b73ffffffffffffffffffffffffffffffffffffffff161461106d576040517f08c379a000000000000000000000000000000000000000000000000000000000815260040161106490613b59565b60405180910390fd5b5f611076611887565b73ffffffffffffffffffffffffffffffffffffffff164760405161109990613e9e565b5f6040518083038185875af1925050503d805f81146110d3576040519150601f19603f3d011682016040523d82523d5f602084013e6110d8565b606091505b50509050806110e5575f80fd5b50565b825f811180156110fa5750600d548111155b611102575f80fd5b600c548161111060076124a9565b61111a9190613adc565b1115611124575f80fd5b61112c612217565b73ffffffffffffffffffffffffffffffffffffffff1661114a611887565b73ffffffffffffffffffffffffffffffffffffffff16146111a0576040517f08c379a000000000000000000000000000000000000000000000000000000000815260040161119790613b59565b60405180910390fd5b6111ab8385846123db565b50505050565b6111cb83838360405180602001604052805f815250611bd2565b505050565b60605f6111dc836115d3565b90505f8167ffffffffffffffff8111156111f9576111f8613107565b5b6040519080825280602002602001820160405280156112275781602001602082028036833780820191505090505b5090505f600190505f5b83811080156112425750600c548211155b156112c9575f61125183611527565b90508673ffffffffffffffffffffffffffffffffffffffff168173ffffffffffffffffffffffffffffffffffffffff16036112b5578284838151811061129a57611299613eb2565b5b60200260200101818152505081806112b190613edf565b9250505b82806112c090613edf565b93505050611231565b82945050505050919050565b6112dd612217565b73ffffffffffffffffffffffffffffffffffffffff166112fb611887565b73ffffffffffffffffffffffffffffffffffffffff1614611351576040517f08c379a000000000000000000000000000000000000000000000000000000000815260040161134890613b59565b60405180910390fd5b80600b8190555050565b611363612217565b73ffffffffffffffffffffffffffffffffffffffff16611381611887565b73ffffffffffffffffffffffffffffffffffffffff16146113d7576040517f08c379a00000000000000000000000000000000000000000000000000000000081526004016113ce90613b59565b60405180910390fd5b80600a90816113e69190613d14565b5050565b600e60019054906101000a900460ff1681565b6009805461140a9061372b565b80601f01602080910402602001604051908101604052809291908181526020018280546114369061372b565b80156114815780601f1061145857610100808354040283529160200191611481565b820191905f5260205f20905b81548152906001019060200180831161146457829003601f168201915b505050505081565b600e5f9054906101000a900460ff1681565b600880546114a89061372b565b80601f01602080910402602001604051908101604052809291908181526020018280546114d49061372b565b801561151f5780601f106114f65761010080835404028352916020019161151f565b820191905f5260205f20905b81548152906001019060200180831161150257829003601f168201915b505050505081565b5f8060025f8481526020019081526020015f205f9054906101000a900473ffffffffffffffffffffffffffffffffffffffff1690505f73ffffffffffffffffffffffffffffffffffffffff168173ffffffffffffffffffffffffffffffffffffffff16036115ca576040517f08c379a00000000000000000000000000000000000000000000000000000000081526004016115c190613f96565b60405180910390fd5b80915050919050565b5f8073ffffffffffffffffffffffffffffffffffffffff168273ffffffffffffffffffffffffffffffffffffffff1603611642576040517f08c379a000000000000000000000000000000000000000000000000000000000815260040161163990614024565b60405180910390fd5b60035f8373ffffffffffffffffffffffffffffffffffffffff1673ffffffffffffffffffffffffffffffffffffffff1681526020019081526020015f20549050919050565b61168f612217565b73ffffffffffffffffffffffffffffffffffffffff166116ad611887565b73ffffffffffffffffffffffffffffffffffffffff1614611703576040517f08c379a00000000000000000000000000000000000000000000000000000000081526004016116fa90613b59565b60405180910390fd5b5f73ffffffffffffffffffffffffffffffffffffffff1660065f9054906101000a900473ffffffffffffffffffffffffffffffffffffffff1673ffffffffffffffffffffffffffffffffffffffff167f8be0079c531659141344cd1fd0a4f28419497f9722a3daafe3b4186f6b6457e060405160405180910390a35f60065f6101000a81548173ffffffffffffffffffffffffffffffffffffffff021916908373ffffffffffffffffffffffffffffffffffffffff160217905550565b600f602052805f5260405f205f91509050805f015f9054906101000a900460ff1690805f0160019054906101000a900460ff16905082565b611800612217565b73ffffffffffffffffffffffffffffffffffffffff1661181e611887565b73ffffffffffffffffffffffffffffffffffffffff1614611874576040517f08c379a000000000000000000000000000000000000000000000000000000000815260040161186b90613b59565b60405180910390fd5b80600890816118839190613d14565b5050565b5f60065f9054906101000a900473ffffffffffffffffffffffffffffffffffffffff16905090565b600d5481565b6060600180546118c49061372b565b80601f01602080910402602001604051908101604052809291908181526020018280546118f09061372b565b801561193b5780601f106119125761010080835404028352916020019161193b565b820191905f5260205f20905b81548152906001019060200180831161191e57829003601f168201915b5050505050905090565b61194d612217565b73ffffffffffffffffffffffffffffffffffffffff168273ffffffffffffffffffffffffffffffffffffffff16036119ba576040517f08c379a00000000000000000000000000000000000000000000000000000000081526004016119b19061408c565b60405180910390fd5b8060055f6119c6612217565b73ffffffffffffffffffffffffffffffffffffffff1673ffffffffffffffffffffffffffffffffffffffff1681526020019081526020015f205f8473ffffffffffffffffffffffffffffffffffffffff1673ffffffffffffffffffffffffffffffffffffffff1681526020019081526020015f205f6101000a81548160ff0219169083151502179055508173ffffffffffffffffffffffffffffffffffffffff16611a6f612217565b73ffffffffffffffffffffffffffffffffffffffff167f17307eab39ab6107e8899845ad3d59bd9653f200f220920489ca2b5937696c3183604051611ab49190612eb8565b60405180910390a35050565b600a8054611acd9061372b565b80601f0160208091040260200160405190810160405280929190818152602001828054611af99061372b565b8015611b445780601f10611b1b57610100808354040283529160200191611b44565b820191905f5260205f20905b815481529060010190602001808311611b2757829003601f168201915b505050505081565b611b54612217565b73ffffffffffffffffffffffffffffffffffffffff16611b72611887565b73ffffffffffffffffffffffffffffffffffffffff1614611bc8576040517f08c379a0000000000000000000000000000000000000000000000000000000008152600401611bbf90613b59565b60405180910390fd5b80600d8190555050565b611be3611bdd612217565b836124b5565b611c22576040517f08c379a0000000000000000000000000000000000000000000000000000000008152600401611c1990613e53565b60405180910390fd5b611c2e848484846127e1565b50505050565b6060611c3f826121af565b611c7e576040517f08c379a0000000000000000000000000000000000000000000000000000000008152600401611c759061411a565b60405180910390fd5b5f1515600e60019054906101000a900460ff16151503611d2857600a8054611ca59061372b565b80601f0160208091040260200160405190810160405280929190818152602001828054611cd19061372b565b8015611d1c5780601f10611cf357610100808354040283529160200191611d1c565b820191905f5260205f20905b815481529060010190602001808311611cff57829003601f168201915b50505050509050611d81565b5f611d3161283d565b90505f815111611d4f5760405180602001604052805f815250611d7d565b80611d59846128cd565b6009604051602001611d6d939291906141f2565b6040516020818303038152906040525b9150505b919050565b600c5481565b611d94612217565b73ffffffffffffffffffffffffffffffffffffffff16611db2611887565b73ffffffffffffffffffffffffffffffffffffffff1614611e08576040517f08c379a0000000000000000000000000000000000000000000000000000000008152600401611dff90613b59565b60405180910390fd5b80600e60016101000a81548160ff02191690831515021790555050565b5f60055f8473ffffffffffffffffffffffffffffffffffffffff1673ffffffffffffffffffffffffffffffffffffffff1681526020019081526020015f205f8373ffffffffffffffffffffffffffffffffffffffff1673ffffffffffffffffffffffffffffffffffffffff1681526020019081526020015f205f9054906101000a900460ff16905092915050565b611ebb612217565b73ffffffffffffffffffffffffffffffffffffffff16611ed9611887565b73ffffffffffffffffffffffffffffffffffffffff1614611f2f576040517f08c379a0000000000000000000000000000000000000000000000000000000008152600401611f2690613b59565b60405180910390fd5b5f73ffffffffffffffffffffffffffffffffffffffff168173ffffffffffffffffffffffffffffffffffffffff1603611f9d576040517f08c379a0000000000000000000000000000000000000000000000000000000008152600401611f9490614292565b60405180910390fd5b8073ffffffffffffffffffffffffffffffffffffffff1660065f9054906101000a900473ffffffffffffffffffffffffffffffffffffffff1673ffffffffffffffffffffffffffffffffffffffff167f8be0079c531659141344cd1fd0a4f28419497f9722a3daafe3b4186f6b6457e060405160405180910390a38060065f6101000a81548173ffffffffffffffffffffffffffffffffffffffff021916908373ffffffffffffffffffffffffffffffffffffffff16021790555050565b815f8111801561206d5750600d548111155b612075575f80fd5b600c548161208360076124a9565b61208d9190613adc565b1115612097575f80fd5b600e5f9054906101000a900460ff16156120e6576040517f08c379a00000000000000000000000000000000000000000000000000000000081526004016120dd906142fa565b60405180910390fd5b82600b546120f49190614318565b341015612136576040517f08c379a000000000000000000000000000000000000000000000000000000000815260040161212d906143a3565b60405180910390fd5b6121413384846123db565b505050565b5f7f01ffc9a7000000000000000000000000000000000000000000000000000000007bffffffffffffffffffffffffffffffffffffffffffffffffffffffff1916827bffffffffffffffffffffffffffffffffffffffffffffffffffffffff1916149050919050565b5f8073ffffffffffffffffffffffffffffffffffffffff1660025f8481526020019081526020015f205f9054906101000a900473ffffffffffffffffffffffffffffffffffffffff1673ffffffffffffffffffffffffffffffffffffffff1614159050919050565b5f33905090565b8160045f8381526020019081526020015f205f6101000a81548173ffffffffffffffffffffffffffffffffffffffff021916908373ffffffffffffffffffffffffffffffffffffffff160217905550808273ffffffffffffffffffffffffffffffffffffffff1661228e83611527565b73ffffffffffffffffffffffffffffffffffffffff167f8c5be1e5ebec7d5bd14f71427d1e84f3dd0314c0f7b2291e5b200ac8c7c3b92560405160405180910390a45050565b5f6122de82611527565b90506122eb815f84612a26565b6122f55f8361221e565b600160035f8373ffffffffffffffffffffffffffffffffffffffff1673ffffffffffffffffffffffffffffffffffffffff1681526020019081526020015f205f82825461234291906143c1565b9250508190555060025f8381526020019081526020015f205f6101000a81549073ffffffffffffffffffffffffffffffffffffffff0219169055815f73ffffffffffffffffffffffffffffffffffffffff168273ffffffffffffffffffffffffffffffffffffffff167fddf252ad1be2c89b69c2b068fc378daa952ba7f163c4a11628f55a4df523b3ef60405160405180910390a45050565b5f5b828110156124a3576123ef6007612a2b565b5f6123fa60076124a9565b90506124068582612a3f565b60405180604001604052808460038111156124245761242361348c565b5b81526020015f1515815250600f5f8381526020019081526020015f205f820151815f015f6101000a81548160ff021916908360038111156124685761246761348c565b5b02179055506020820151815f0160016101000a81548160ff02191690831515021790555090505050808061249b90613edf565b9150506123dd565b50505050565b5f815f01549050919050565b5f6124bf826121af565b6124fe576040517f08c379a00000000000000000000000000000000000000000000000000000000081526004016124f590614464565b60405180910390fd5b5f61250883611527565b90508073ffffffffffffffffffffffffffffffffffffffff168473ffffffffffffffffffffffffffffffffffffffff16148061257757508373ffffffffffffffffffffffffffffffffffffffff1661255f84610a11565b73ffffffffffffffffffffffffffffffffffffffff16145b8061258857506125878185611e25565b5b91505092915050565b8273ffffffffffffffffffffffffffffffffffffffff166125b182611527565b73ffffffffffffffffffffffffffffffffffffffff1614612607576040517f08c379a00000000000000000000000000000000000000000000000000000000081526004016125fe906144f2565b60405180910390fd5b5f73ffffffffffffffffffffffffffffffffffffffff168273ffffffffffffffffffffffffffffffffffffffff1603612675576040517f08c379a000000000000000000000000000000000000000000000000000000000815260040161266c90614580565b60405180910390fd5b612680838383612a26565b61268a5f8261221e565b600160035f8573ffffffffffffffffffffffffffffffffffffffff1673ffffffffffffffffffffffffffffffffffffffff1681526020019081526020015f205f8282546126d791906143c1565b92505081905550600160035f8473ffffffffffffffffffffffffffffffffffffffff1673ffffffffffffffffffffffffffffffffffffffff1681526020019081526020015f205f82825461272b9190613adc565b925050819055508160025f8381526020019081526020015f205f6101000a81548173ffffffffffffffffffffffffffffffffffffffff021916908373ffffffffffffffffffffffffffffffffffffffff160217905550808273ffffffffffffffffffffffffffffffffffffffff168473ffffffffffffffffffffffffffffffffffffffff167fddf252ad1be2c89b69c2b068fc378daa952ba7f163c4a11628f55a4df523b3ef60405160405180910390a4505050565b6127ec848484612591565b6127f884848484612a5c565b612837576040517f08c379a000000000000000000000000000000000000000000000000000000000815260040161282e9061460e565b60405180910390fd5b50505050565b60606008805461284c9061372b565b80601f01602080910402602001604051908101604052809291908181526020018280546128789061372b565b80156128c35780601f1061289a576101008083540402835291602001916128c3565b820191905f5260205f20905b8154815290600101906020018083116128a657829003601f168201915b5050505050905090565b60605f8203612913576040518060400160405280600181526020017f30000000000000000000000000000000000000000000000000000000000000008152509050612a21565b5f8290505f5b5f821461294257808061292b90613edf565b915050600a8261293b9190614659565b9150612919565b5f8167ffffffffffffffff81111561295d5761295c613107565b5b6040519080825280601f01601f19166020018201604052801561298f5781602001600182028036833780820191505090505b5090505b5f8514612a1a576001826129a791906143c1565b9150600a856129b69190614689565b60306129c29190613adc565b60f81b8183815181106129d8576129d7613eb2565b5b60200101907effffffffffffffffffffffffffffffffffffffffffffffffffffffffffffff191690815f1a905350600a85612a139190614659565b9450612993565b8093505050505b919050565b505050565b6001815f015f828254019250508190555050565b612a58828260405180602001604052805f815250612bde565b5050565b5f612a7c8473ffffffffffffffffffffffffffffffffffffffff16612c38565b15612bd1578373ffffffffffffffffffffffffffffffffffffffff1663150b7a02612aa5612217565b8786866040518563ffffffff1660e01b8152600401612ac7949392919061470b565b6020604051808303815f875af1925050508015612b0257506040513d601f19601f82011682018060405250810190612aff9190614769565b60015b612b81573d805f8114612b30576040519150601f19603f3d011682016040523d82523d5f602084013e612b35565b606091505b505f815103612b79576040517f08c379a0000000000000000000000000000000000000000000000000000000008152600401612b709061460e565b60405180910390fd5b805181602001fd5b63150b7a0260e01b7bffffffffffffffffffffffffffffffffffffffffffffffffffffffff1916817bffffffffffffffffffffffffffffffffffffffffffffffffffffffff191614915050612bd6565b600190505b949350505050565b612be88383612c49565b612bf45f848484612a5c565b612c33576040517f08c379a0000000000000000000000000000000000000000000000000000000008152600401612c2a9061460e565b60405180910390fd5b505050565b5f80823b90505f8111915050919050565b5f73ffffffffffffffffffffffffffffffffffffffff168273ffffffffffffffffffffffffffffffffffffffff1603612cb7576040517f08c379a0000000000000000000000000000000000000000000000000000000008152600401612cae906147de565b60405180910390fd5b612cc0816121af565b15612d00576040517f08c379a0000000000000000000000000000000000000000000000000000000008152600401612cf790614846565b60405180910390fd5b612d0b5f8383612a26565b600160035f8473ffffffffffffffffffffffffffffffffffffffff1673ffffffffffffffffffffffffffffffffffffffff1681526020019081526020015f205f828254612d589190613adc565b925050819055508160025f8381526020019081526020015f205f6101000a81548173ffffffffffffffffffffffffffffffffffffffff021916908373ffffffffffffffffffffffffffffffffffffffff160217905550808273ffffffffffffffffffffffffffffffffffffffff165f73ffffffffffffffffffffffffffffffffffffffff167fddf252ad1be2c89b69c2b068fc378daa952ba7f163c4a11628f55a4df523b3ef60405160405180910390a45050565b5f604051905090565b5f80fd5b5f80fd5b5f7fffffffff0000000000000000000000000000000000000000000000000000000082169050919050565b612e5281612e1e565b8114612e5c575f80fd5b50565b5f81359050612e6d81612e49565b92915050565b5f60208284031215612e8857612e87612e16565b5b5f612e9584828501612e5f565b91505092915050565b5f8115159050919050565b612eb281612e9e565b82525050565b5f602082019050612ecb5f830184612ea9565b92915050565b5f81519050919050565b5f82825260208201905092915050565b5f5b83811015612f08578082015181840152602081019050612eed565b5f8484015250505050565b5f601f19601f8301169050919050565b5f612f2d82612ed1565b612f378185612edb565b9350612f47818560208601612eeb565b612f5081612f13565b840191505092915050565b5f6020820190508181035f830152612f738184612f23565b905092915050565b5f819050919050565b612f8d81612f7b565b8114612f97575f80fd5b50565b5f81359050612fa881612f84565b92915050565b5f60208284031215612fc357612fc2612e16565b5b5f612fd084828501612f9a565b91505092915050565b5f73ffffffffffffffffffffffffffffffffffffffff82169050919050565b5f61300282612fd9565b9050919050565b61301281612ff8565b82525050565b5f60208201905061302b5f830184613009565b92915050565b61303a81612ff8565b8114613044575f80fd5b50565b5f8135905061305581613031565b92915050565b5f806040838503121561307157613070612e16565b5b5f61307e85828601613047565b925050602061308f85828601612f9a565b9150509250929050565b5f80604083850312156130af576130ae612e16565b5b5f6130bc85828601612f9a565b92505060206130cd85828601612f9a565b9150509250929050565b6130e081612f7b565b82525050565b5f6020820190506130f95f8301846130d7565b92915050565b5f80fd5b5f80fd5b7f4e487b71000000000000000000000000000000000000000000000000000000005f52604160045260245ffd5b61313d82612f13565b810181811067ffffffffffffffff8211171561315c5761315b613107565b5b80604052505050565b5f61316e612e0d565b905061317a8282613134565b919050565b5f67ffffffffffffffff82111561319957613198613107565b5b6131a282612f13565b9050602081019050919050565b828183375f83830152505050565b5f6131cf6131ca8461317f565b613165565b9050828152602081018484840111156131eb576131ea613103565b5b6131f68482856131af565b509392505050565b5f82601f830112613212576132116130ff565b5b81356132228482602086016131bd565b91505092915050565b5f602082840312156132405761323f612e16565b5b5f82013567ffffffffffffffff81111561325d5761325c612e1a565b5b613269848285016131fe565b91505092915050565b61327b81612e9e565b8114613285575f80fd5b50565b5f8135905061329681613272565b92915050565b5f602082840312156132b1576132b0612e16565b5b5f6132be84828501613288565b91505092915050565b5f805f606084860312156132de576132dd612e16565b5b5f6132eb86828701613047565b93505060206132fc86828701613047565b925050604061330d86828701612f9a565b9150509250925092565b60048110613323575f80fd5b50565b5f8135905061333481613317565b92915050565b5f805f6060848603121561335157613350612e16565b5b5f61335e86828701612f9a565b935050602061336f86828701613047565b925050604061338086828701613326565b9150509250925092565b5f6020828403121561339f5761339e612e16565b5b5f6133ac84828501613047565b91505092915050565b5f81519050919050565b5f82825260208201905092915050565b5f819050602082019050919050565b6133e781612f7b565b82525050565b5f6133f883836133de565b60208301905092915050565b5f602082019050919050565b5f61341a826133b5565b61342481856133bf565b935061342f836133cf565b805f5b8381101561345f57815161344688826133ed565b975061345183613404565b925050600181019050613432565b5085935050505092915050565b5f6020820190508181035f8301526134848184613410565b905092915050565b7f4e487b71000000000000000000000000000000000000000000000000000000005f52602160045260245ffd5b600481106134ca576134c961348c565b5b50565b5f8190506134da826134b9565b919050565b5f6134e9826134cd565b9050919050565b6134f9816134df565b82525050565b5f6040820190506135125f8301856134f0565b61351f6020830184612ea9565b9392505050565b5f806040838503121561353c5761353b612e16565b5b5f61354985828601613047565b925050602061355a85828601613288565b9150509250929050565b5f67ffffffffffffffff82111561357e5761357d613107565b5b61358782612f13565b9050602081019050919050565b5f6135a66135a184613564565b613165565b9050828152602081018484840111156135c2576135c1613103565b5b6135cd8482856131af565b509392505050565b5f82601f8301126135e9576135e86130ff565b5b81356135f9848260208601613594565b91505092915050565b5f805f806080858703121561361a57613619612e16565b5b5f61362787828801613047565b945050602061363887828801613047565b935050604061364987828801612f9a565b925050606085013567ffffffffffffffff81111561366a57613669612e1a565b5b613676878288016135d5565b91505092959194509250565b5f806040838503121561369857613697612e16565b5b5f6136a585828601613047565b92505060206136b685828601613047565b9150509250929050565b5f80604083850312156136d6576136d5612e16565b5b5f6136e385828601612f9a565b92505060206136f485828601613326565b9150509250929050565b7f4e487b71000000000000000000000000000000000000000000000000000000005f52602260045260245ffd5b5f600282049050600182168061374257607f821691505b602082108103613755576137546136fe565b5b50919050565b7f4552433732313a20617070726f76656420717565727920666f72206e6f6e65785f8201527f697374656e7420746f6b656e0000000000000000000000000000000000000000602082015250565b5f6137b5602c83612edb565b91506137c08261375b565b604082019050919050565b5f6020820190508181035f8301526137e2816137a9565b9050919050565b7f4552433732313a20617070726f76616c20746f2063757272656e74206f776e655f8201527f7200000000000000000000000000000000000000000000000000000000000000602082015250565b5f613843602183612edb565b915061384e826137e9565b604082019050919050565b5f6020820190508181035f83015261387081613837565b9050919050565b7f4552433732313a20617070726f76652063616c6c6572206973206e6f74206f775f8201527f6e6572206e6f7220617070726f76656420666f7220616c6c0000000000000000602082015250565b5f6138d1603883612edb565b91506138dc82613877565b604082019050919050565b5f6020820190508181035f8301526138fe816138c5565b9050919050565b7f4465626573207365722070726f706965746172696f20646520616d626f73204e5f8201527f4654730000000000000000000000000000000000000000000000000000000000602082015250565b5f61395f602383612edb565b915061396a82613905565b604082019050919050565b5f6020820190508181035f83015261398c81613953565b9050919050565b7f4c6f73204e46547320646562656e2074656e6572206c61206d69736d612072615f8201527f72657a6100000000000000000000000000000000000000000000000000000000602082015250565b5f6139ed602483612edb565b91506139f882613993565b604082019050919050565b5f6020820190508181035f830152613a1a816139e1565b9050919050565b7f4e6f20736520707565646520667573696f6e617220756e204e4654204c6567655f8201527f6e646172696f0000000000000000000000000000000000000000000000000000602082015250565b5f613a7b602683612edb565b9150613a8682613a21565b604082019050919050565b5f6020820190508181035f830152613aa881613a6f565b9050919050565b7f4e487b71000000000000000000000000000000000000000000000000000000005f52601160045260245ffd5b5f613ae682612f7b565b9150613af183612f7b565b9250828201905080821115613b0957613b08613aaf565b5b92915050565b7f4f776e61626c653a2063616c6c6572206973206e6f7420746865206f776e65725f82015250565b5f613b43602083612edb565b9150613b4e82613b0f565b602082019050919050565b5f6020820190508181035f830152613b7081613b37565b9050919050565b5f819050815f5260205f209050919050565b5f6020601f8301049050919050565b5f82821b905092915050565b5f60088302613bd37fffffffffffffffffffffffffffffffffffffffffffffffffffffffffffffffff82613b98565b613bdd8683613b98565b95508019841693508086168417925050509392505050565b5f819050919050565b5f613c18613c13613c0e84612f7b565b613bf5565b612f7b565b9050919050565b5f819050919050565b613c3183613bfe565b613c45613c3d82613c1f565b848454613ba4565b825550505050565b5f90565b613c59613c4d565b613c64818484613c28565b505050565b5b81811015613c8757613c7c5f82613c51565b600181019050613c6a565b5050565b601f821115613ccc57613c9d81613b77565b613ca684613b89565b81016020851015613cb5578190505b613cc9613cc185613b89565b830182613c69565b50505b505050565b5f82821c905092915050565b5f613cec5f1984600802613cd1565b1980831691505092915050565b5f613d048383613cdd565b9150826002028217905092915050565b613d1d82612ed1565b67ffffffffffffffff811115613d3657613d35613107565b5b613d40825461372b565b613d4b828285613c8b565b5f60209050601f831160018114613d7c575f8415613d6a578287015190505b613d748582613cf9565b865550613ddb565b601f198416613d8a86613b77565b5f5b82811015613db157848901518255600182019150602085019450602081019050613d8c565b86831015613dce5784890151613dca601f891682613cdd565b8355505b6001600288020188555050505b505050505050565b7f4552433732313a207472616e736665722063616c6c6572206973206e6f74206f5f8201527f776e6572206e6f7220617070726f766564000000000000000000000000000000602082015250565b5f613e3d603183612edb565b9150613e4882613de3565b604082019050919050565b5f6020820190508181035f830152613e6a81613e31565b9050919050565b5f81905092915050565b50565b5f613e895f83613e71565b9150613e9482613e7b565b5f82019050919050565b5f613ea882613e7e565b9150819050919050565b7f4e487b71000000000000000000000000000000000000000000000000000000005f52603260045260245ffd5b5f613ee982612f7b565b91507fffffffffffffffffffffffffffffffffffffffffffffffffffffffffffffffff8203613f1b57613f1a613aaf565b5b600182019050919050565b7f4552433732313a206f776e657220717565727920666f72206e6f6e65786973745f8201527f656e7420746f6b656e0000000000000000000000000000000000000000000000602082015250565b5f613f80602983612edb565b9150613f8b82613f26565b604082019050919050565b5f6020820190508181035f830152613fad81613f74565b9050919050565b7f4552433732313a2062616c616e636520717565727920666f7220746865207a655f8201527f726f206164647265737300000000000000000000000000000000000000000000602082015250565b5f61400e602a83612edb565b915061401982613fb4565b604082019050919050565b5f6020820190508181035f83015261403b81614002565b9050919050565b7f4552433732313a20617070726f766520746f2063616c6c6572000000000000005f82015250565b5f614076601983612edb565b915061408182614042565b602082019050919050565b5f6020820190508181035f8301526140a38161406a565b9050919050565b7f4552433732314d657461646174613a2055524920717565727920666f72206e6f5f8201527f6e6578697374656e7420746f6b656e0000000000000000000000000000000000602082015250565b5f614104602f83612edb565b915061410f826140aa565b604082019050919050565b5f6020820190508181035f830152614131816140f8565b9050919050565b5f81905092915050565b5f61414c82612ed1565b6141568185614138565b9350614166818560208601612eeb565b80840191505092915050565b5f815461417e8161372b565b6141888186614138565b9450600182165f81146141a257600181146141b7576141e9565b60ff19831686528115158202860193506141e9565b6141c085613b77565b5f5b838110156141e1578154818901526001820191506020810190506141c2565b838801955050505b50505092915050565b5f6141fd8286614142565b91506142098285614142565b91506142158284614172565b9150819050949350505050565b7f4f776e61626c653a206e6577206f776e657220697320746865207a65726f20615f8201527f6464726573730000000000000000000000000000000000000000000000000000602082015250565b5f61427c602683612edb565b915061428782614222565b604082019050919050565b5f6020820190508181035f8301526142a981614270565b9050919050565b7f456c20636f6e747261746f20657374c3a120656e2070617573610000000000005f82015250565b5f6142e4601a83612edb565b91506142ef826142b0565b602082019050919050565b5f6020820190508181035f830152614311816142d8565b9050919050565b5f61432282612f7b565b915061432d83612f7b565b925082820261433b81612f7b565b9150828204841483151761435257614351613aaf565b5b5092915050565b7f466f6e646f7320696e737566696369656e7465730000000000000000000000005f82015250565b5f61438d601483612edb565b915061439882614359565b602082019050919050565b5f6020820190508181035f8301526143ba81614381565b9050919050565b5f6143cb82612f7b565b91506143d683612f7b565b92508282039050818111156143ee576143ed613aaf565b5b92915050565b7f4552433732313a206f70657261746f7220717565727920666f72206e6f6e65785f8201527f697374656e7420746f6b656e0000000000000000000000000000000000000000602082015250565b5f61444e602c83612edb565b9150614459826143f4565b604082019050919050565b5f6020820190508181035f83015261447b81614442565b9050919050565b7f4552433732313a207472616e73666572206f6620746f6b656e207468617420695f8201527f73206e6f74206f776e0000000000000000000000000000000000000000000000602082015250565b5f6144dc602983612edb565b91506144e782614482565b604082019050919050565b5f6020820190508181035f830152614509816144d0565b9050919050565b7f4552433732313a207472616e7366657220746f20746865207a65726f206164645f8201527f7265737300000000000000000000000000000000000000000000000000000000602082015250565b5f61456a602483612edb565b915061457582614510565b604082019050919050565b5f6020820190508181035f8301526145978161455e565b9050919050565b7f4552433732313a207472616e7366657220746f206e6f6e2045524337323152655f8201527f63656976657220696d706c656d656e7465720000000000000000000000000000602082015250565b5f6145f8603283612edb565b91506146038261459e565b604082019050919050565b5f6020820190508181035f830152614625816145ec565b9050919050565b7f4e487b71000000000000000000000000000000000000000000000000000000005f52601260045260245ffd5b5f61466382612f7b565b915061466e83612f7b565b92508261467e5761467d61462c565b5b828204905092915050565b5f61469382612f7b565b915061469e83612f7b565b9250826146ae576146ad61462c565b5b828206905092915050565b5f81519050919050565b5f82825260208201905092915050565b5f6146dd826146b9565b6146e781856146c3565b93506146f7818560208601612eeb565b61470081612f13565b840191505092915050565b5f60808201905061471e5f830187613009565b61472b6020830186613009565b61473860408301856130d7565b818103606083015261474a81846146d3565b905095945050505050565b5f8151905061476381612e49565b92915050565b5f6020828403121561477e5761477d612e16565b5b5f61478b84828501614755565b91505092915050565b7f4552433732313a206d696e7420746f20746865207a65726f20616464726573735f82015250565b5f6147c8602083612edb565b91506147d382614794565b602082019050919050565b5f6020820190508181035f8301526147f5816147bc565b9050919050565b7f4552433732313a20746f6b656e20616c7265616479206d696e746564000000005f82015250565b5f614830601c83612edb565b915061483b826147fc565b602082019050919050565b5f6020820190508181035f83015261485d81614824565b905091905056fea2646970667358221220ffaa3d681bdb23e54ba800a8b3ab43bf6ea9cd41faf623c6b19f2175647fa3e464736f6c63430008150033",
  "immutableReferences": {},
  "source": "// SPDX-License-Identifier: MIT\r\n\r\n// Amended by HashLips\r\n/**\r\n    Disclaimer:\r\n    These contracts have been used to create tutorials,\r\n    and were created for the purpose of teaching people\r\n    how to create smart contracts on the blockchain.\r\n    Please review this code on your own before using any of\r\n    the following code for production.\r\n    The developer will not be responsible or liable for any loss or\r\n    damage whatsoever caused by you participating in any way in the\r\n    experimental code, whether putting money into the contract or\r\n    using the code for your own project.\r\n*/\r\n\r\npragma solidity >=0.7.0 <0.9.0;\r\n\r\nimport \"@openzeppelin/contracts/token/ERC721/ERC721.sol\";\r\nimport \"@openzeppelin/contracts/utils/Counters.sol\";\r\nimport \"@openzeppelin/contracts/access/Ownable.sol\";\r\n\r\ncontract SimpleNftLowerGas is ERC721, Ownable {\r\n    using Strings for uint256;\r\n    using Counters for Counters.Counter;\r\n\r\n    Counters.Counter private supply;\r\n\r\n    string public uriPrefix = \"\";\r\n    string public uriSuffix = \".json\";\r\n    string public hiddenMetadataUri;\r\n\r\n    uint256 public cost = 0.01 ether;\r\n    uint256 public maxSupply = 10000;\r\n    uint256 public maxMintAmountPerTx = 5;\r\n\r\n    bool public paused = true;\r\n    bool public revealed = false;\r\n\r\n    // Definimos los niveles de rareza\r\n    enum Rareza { Comun, Raro, Epico, Legendario }\r\n\r\n    struct NFTDetails {\r\n        Rareza rareza;\r\n        bool fusionado;\r\n    }\r\n\r\n    mapping(uint256 => NFTDetails) public nftDetails;\r\n\r\n    constructor() ERC721(\"MyNFT\", \"MNFT\") {\r\n        setHiddenMetadataUri(\"ipfs://__CID__/hidden.json\");\r\n    }\r\n\r\nmodifier mintCompliance(uint256 _mintAmount) {\r\n    require(_mintAmount > 0 && _mintAmount <= maxMintAmountPerTx);\r\n    require(supply.current() + _mintAmount <= maxSupply);\r\n    _;\r\n}\r\n\r\n\r\n\r\n    function totalSupply() public view returns (uint256) {\r\n        return supply.current();\r\n    }\r\n\r\n    function mint(uint256 _mintAmount, Rareza _rareza) public payable mintCompliance(_mintAmount) {\r\n        require(!paused, unicode\"El contrato est en pausa\");\r\n        require(msg.value >= cost * _mintAmount, unicode\"Fondos insuficientes\");\r\n\r\n        _mintLoop(msg.sender, _mintAmount, _rareza);\r\n    }\r\n\r\n    function mintForAddress(uint256 _mintAmount, address _receiver, Rareza _rareza) public mintCompliance(_mintAmount) onlyOwner {\r\n        _mintLoop(_receiver, _mintAmount, _rareza);\r\n    }\r\n\r\n    function fusionarNFTs(uint256 tokenId1, uint256 tokenId2) public {\r\n        require(ownerOf(tokenId1) == msg.sender && ownerOf(tokenId2) == msg.sender, \"Debes ser propietario de ambos NFTs\");\r\n        require(nftDetails[tokenId1].rareza == nftDetails[tokenId2].rareza, \"Los NFTs deben tener la misma rareza\");\r\n        require(nftDetails[tokenId1].rareza != Rareza.Legendario, \"No se puede fusionar un NFT Legendario\");\r\n\r\n        // Marcamos ambos NFTs como fusionados\r\n        nftDetails[tokenId1].fusionado = true;\r\n        nftDetails[tokenId2].fusionado = true;\r\n\r\n        // Quemamos los NFTs anteriores\r\n        _burn(tokenId1);\r\n        _burn(tokenId2);\r\n\r\n        // Creamos un nuevo NFT con rareza superior\r\n        Rareza nuevaRareza = Rareza(uint(nftDetails[tokenId1].rareza) + 1);\r\n        _mintLoop(msg.sender, 1, nuevaRareza);\r\n    }\r\n\r\n    function walletOfOwner(address _owner) public view returns (uint256[] memory) {\r\n        uint256 ownerTokenCount = balanceOf(_owner);\r\n        uint256[] memory ownedTokenIds = new uint256[](ownerTokenCount);\r\n        uint256 currentTokenId = 1;\r\n        uint256 ownedTokenIndex = 0;\r\n\r\n        while (ownedTokenIndex < ownerTokenCount && currentTokenId <= maxSupply) {\r\n            address currentTokenOwner = ownerOf(currentTokenId);\r\n\r\n            if (currentTokenOwner == _owner) {\r\n                ownedTokenIds[ownedTokenIndex] = currentTokenId;\r\n                ownedTokenIndex++;\r\n            }\r\n\r\n            currentTokenId++;\r\n        }\r\n\r\n        return ownedTokenIds;\r\n    }\r\n\r\n    function tokenURI(uint256 _tokenId) public view virtual override returns (string memory) {\r\n        require(_exists(_tokenId), \"ERC721Metadata: URI query for nonexistent token\");\r\n\r\n        if (revealed == false) {\r\n            return hiddenMetadataUri;\r\n        }\r\n\r\n        string memory currentBaseURI = _baseURI();\r\n        return bytes(currentBaseURI).length > 0 ? string(abi.encodePacked(currentBaseURI, _tokenId.toString(), uriSuffix)) : \"\";\r\n    }\r\n\r\n    function setRevealed(bool _state) public onlyOwner {\r\n        revealed = _state;\r\n    }\r\n\r\n    function setCost(uint256 _cost) public onlyOwner {\r\n        cost = _cost;\r\n    }\r\n\r\n    function setMaxMintAmountPerTx(uint256 _maxMintAmountPerTx) public onlyOwner {\r\n        maxMintAmountPerTx = _maxMintAmountPerTx;\r\n    }\r\n\r\n    function setHiddenMetadataUri(string memory _hiddenMetadataUri) public onlyOwner {\r\n        hiddenMetadataUri = _hiddenMetadataUri;\r\n    }\r\n\r\n    function setUriPrefix(string memory _uriPrefix) public onlyOwner {\r\n        uriPrefix = _uriPrefix;\r\n    }\r\n\r\n    function setUriSuffix(string memory _uriSuffix) public onlyOwner {\r\n        uriSuffix = _uriSuffix;\r\n    }\r\n\r\n    function setPaused(bool _state) public onlyOwner {\r\n        paused = _state;\r\n    }\r\n\r\n    function withdraw() public onlyOwner {\r\n        (bool os, ) = payable(owner()).call{value: address(this).balance}(\"\");\r\n        require(os);\r\n    }\r\n\r\n    function _mintLoop(address _receiver, uint256 _mintAmount, Rareza _rareza) internal {\r\n        for (uint256 i = 0; i < _mintAmount; i++) {\r\n            supply.increment();\r\n            uint256 newTokenId = supply.current();\r\n            _safeMint(_receiver, newTokenId);\r\n\r\n            // Establecemos los detalles del NFT con rareza\r\n            nftDetails[newTokenId] = NFTDetails({\r\n                rareza: _rareza,\r\n                fusionado: false\r\n            });\r\n        }\r\n    }\r\n\r\n    function _baseURI() internal view virtual override returns (string memory) {\r\n        return uriPrefix;\r\n    }\r\n}\r\n",
  "sourcePath": "D:\\descargas\\ntf-projecto\\servidor-ntf\\contracts\\MyNFT.sol",
  "compiler": {
    "name": "solc",
    "version": "0.8.21+commit.d9974bed.Emscripten.clang"
  },
  "schemaVersion": "3.4.16",
  "updatedAt": "2024-09-28T15:07:58.043Z",
  "devdoc": {
    "events": {
      "Approval(address,address,uint256)": {
        "details": "Emitted when `owner` enables `approved` to manage the `tokenId` token."
      },
      "ApprovalForAll(address,address,bool)": {
        "details": "Emitted when `owner` enables or disables (`approved`) `operator` to manage all of its assets."
      },
      "Transfer(address,address,uint256)": {
        "details": "Emitted when `tokenId` token is transferred from `from` to `to`."
      }
    },
    "kind": "dev",
    "methods": {
      "approve(address,uint256)": {
        "details": "See {IERC721-approve}."
      },
      "balanceOf(address)": {
        "details": "See {IERC721-balanceOf}."
      },
      "getApproved(uint256)": {
        "details": "See {IERC721-getApproved}."
      },
      "isApprovedForAll(address,address)": {
        "details": "See {IERC721-isApprovedForAll}."
      },
      "name()": {
        "details": "See {IERC721Metadata-name}."
      },
      "owner()": {
        "details": "Returns the address of the current owner."
      },
      "ownerOf(uint256)": {
        "details": "See {IERC721-ownerOf}."
      },
      "renounceOwnership()": {
        "details": "Leaves the contract without owner. It will not be possible to call `onlyOwner` functions anymore. Can only be called by the current owner. NOTE: Renouncing ownership will leave the contract without an owner, thereby removing any functionality that is only available to the owner."
      },
      "safeTransferFrom(address,address,uint256)": {
        "details": "See {IERC721-safeTransferFrom}."
      },
      "safeTransferFrom(address,address,uint256,bytes)": {
        "details": "See {IERC721-safeTransferFrom}."
      },
      "setApprovalForAll(address,bool)": {
        "details": "See {IERC721-setApprovalForAll}."
      },
      "supportsInterface(bytes4)": {
        "details": "See {IERC165-supportsInterface}."
      },
      "symbol()": {
        "details": "See {IERC721Metadata-symbol}."
      },
      "transferFrom(address,address,uint256)": {
        "details": "See {IERC721-transferFrom}."
      },
      "transferOwnership(address)": {
        "details": "Transfers ownership of the contract to a new account (`newOwner`). Can only be called by the current owner."
      }
    },
    "version": 1
  },
  "userdoc": {
    "kind": "user",
    "methods": {},
    "version": 1
  }
}